{
  "contractName": "Patient",
  "abi": [
    {
      "constant": true,
      "inputs": [],
      "name": "reportCount",
      "outputs": [
        {
          "name": "",
          "type": "uint256"
        }
      ],
      "payable": false,
      "stateMutability": "view",
      "type": "function"
    },
    {
      "constant": true,
      "inputs": [
        {
          "name": "",
          "type": "uint256"
        }
      ],
      "name": "records",
      "outputs": [
        {
          "name": "id",
          "type": "uint256"
        },
        {
          "name": "name",
          "type": "string"
        },
        {
          "name": "age",
          "type": "uint256"
        },
        {
          "name": "createdBy",
          "type": "address"
        }
      ],
      "payable": false,
      "stateMutability": "view",
      "type": "function"
    },
    {
      "constant": true,
      "inputs": [
        {
          "name": "",
          "type": "uint256"
        }
      ],
      "name": "problem",
      "outputs": [
        {
          "name": "id",
          "type": "uint256"
        },
        {
          "name": "content",
          "type": "string"
        },
        {
          "name": "suggestion",
          "type": "string"
        },
        {
          "name": "userRef",
          "type": "uint256"
        },
        {
          "name": "createdBy",
          "type": "address"
        },
        {
          "name": "doctorReport",
          "type": "string"
        }
      ],
      "payable": false,
      "stateMutability": "view",
      "type": "function"
    },
    {
      "constant": true,
      "inputs": [],
      "name": "problemCount",
      "outputs": [
        {
          "name": "",
          "type": "uint256"
        }
      ],
      "payable": false,
      "stateMutability": "view",
      "type": "function"
    },
    {
      "constant": true,
      "inputs": [],
      "name": "recordsCount",
      "outputs": [
        {
          "name": "",
          "type": "uint256"
        }
      ],
      "payable": false,
      "stateMutability": "view",
      "type": "function"
    },
    {
      "inputs": [],
      "payable": false,
      "stateMutability": "nonpayable",
      "type": "constructor"
    },
    {
      "anonymous": false,
      "inputs": [
        {
          "indexed": false,
          "name": "id",
          "type": "uint256"
        },
        {
          "indexed": false,
          "name": "name",
          "type": "string"
        },
        {
          "indexed": false,
          "name": "age",
          "type": "uint256"
        },
        {
          "indexed": false,
          "name": "craetedBy",
          "type": "address"
        }
      ],
      "name": "RecordCreated",
      "type": "event"
    },
    {
      "constant": false,
      "inputs": [
        {
          "name": "_name",
          "type": "string"
        },
        {
          "name": "_age",
          "type": "uint256"
        },
        {
          "name": "_sender",
          "type": "address"
        }
      ],
      "name": "createRecords",
      "outputs": [],
      "payable": false,
      "stateMutability": "nonpayable",
      "type": "function"
    },
    {
      "constant": false,
      "inputs": [
        {
          "name": "_problem",
          "type": "string"
        },
        {
          "name": "_suggestion",
          "type": "string"
        },
        {
          "name": "_user",
          "type": "uint256"
        },
        {
          "name": "_sender",
          "type": "address"
        },
        {
          "name": "_doctor",
          "type": "string"
        }
      ],
      "name": "insertProblem",
      "outputs": [],
      "payable": false,
      "stateMutability": "nonpayable",
      "type": "function"
    }
  ],
  "bytecode": "0x6080604052600080556000600155600060025534801561001e57600080fd5b506100666040518060400160405280600681526020017f6b68616c6964000000000000000000000000000000000000000000000000000081525060183361006b60201b60201c565b610268565b6000805460019081018083556040805160808101825282815260208082018981528284018990526001600160a01b03881660608401529386526003815291909420845181559151805192936100c8939085019291909101906101cd565b506040820151816002015560608201518160030160006101000a8154816001600160a01b0302191690836001600160a01b031602179055509050507fac4189a1e8a05e52347eac46e21c0e3256c23c7bfca58ef576f2d88a40d0e0be6000548484846040518085815260200180602001848152602001836001600160a01b03166001600160a01b03168152602001828103825285818151815260200191508051906020019080838360005b8381101561018b578181015183820152602001610173565b50505050905090810190601f1680156101b85780820380516001836020036101000a031916815260200191505b509550505050505060405180910390a1505050565b828054600181600116156101000203166002900490600052602060002090601f016020900481019282601f1061020e57805160ff191683800117855561023b565b8280016001018555821561023b579182015b8281111561023b578251825591602001919060010190610220565b5061024792915061024b565b5090565b61026591905b808211156102475760008155600101610251565b90565b610b14806102776000396000f3fe608060405234801561001057600080fd5b506004361061007d5760003560e01c80633b43bf201161005b5780633b43bf20146102025780639115e71b1461038a578063a83b257414610392578063eb3dbf83146105555761007d565b80630660d70714610082578063185c6f84146101365780633446106714610150575b600080fd5b6101346004803603606081101561009857600080fd5b810190602081018135600160201b8111156100b257600080fd5b8201836020820111156100c457600080fd5b803590602001918460018302840111600160201b831117156100e557600080fd5b91908080601f01602080910402602001604051908101604052809392919081815260200183838082843760009201919091525092955050823593505050602001356001600160a01b031661055d565b005b61013e6106bf565b60408051918252519081900360200190f35b61016d6004803603602081101561016657600080fd5b50356106c5565b604080518581529081018390526001600160a01b038216606082015260806020808301828152865192840192909252855160a084019187019080838360005b838110156101c45781810151838201526020016101ac565b50505050905090810190601f1680156101f15780820380516001836020036101000a031916815260200191505b509550505050505060405180910390f35b61021f6004803603602081101561021857600080fd5b5035610782565b604051808781526020018060200180602001868152602001856001600160a01b03166001600160a01b0316815260200180602001848103845289818151815260200191508051906020019080838360005b83811015610288578181015183820152602001610270565b50505050905090810190601f1680156102b55780820380516001836020036101000a031916815260200191505b5084810383528851815288516020918201918a019080838360005b838110156102e85781810151838201526020016102d0565b50505050905090810190601f1680156103155780820380516001836020036101000a031916815260200191505b50848103825285518152855160209182019187019080838360005b83811015610348578181015183820152602001610330565b50505050905090810190601f1680156103755780820380516001836020036101000a031916815260200191505b50995050505050505050505060405180910390f35b61013e610961565b610134600480360360a08110156103a857600080fd5b810190602081018135600160201b8111156103c257600080fd5b8201836020820111156103d457600080fd5b803590602001918460018302840111600160201b831117156103f557600080fd5b91908080601f0160208091040260200160405190810160405280939291908181526020018383808284376000920191909152509295949360208101935035915050600160201b81111561044757600080fd5b82018360208201111561045957600080fd5b803590602001918460018302840111600160201b8311171561047a57600080fd5b91908080601f01602080910402602001604051908101604052809392919081815260200183838082843760009201919091525092958435956001600160a01b0360208701351695919450925060608101915060400135600160201b8111156104e157600080fd5b8201836020820111156104f357600080fd5b803590602001918460018302840111600160201b8311171561051457600080fd5b91908080601f016020809104026020016040519081016040528093929190818152602001838380828437600092019190915250929550610967945050505050565b61013e610a47565b6000805460019081018083556040805160808101825282815260208082018981528284018990526001600160a01b03881660608401529386526003815291909420845181559151805192936105ba93908501929190910190610a4d565b506040820151816002015560608201518160030160006101000a8154816001600160a01b0302191690836001600160a01b031602179055509050507fac4189a1e8a05e52347eac46e21c0e3256c23c7bfca58ef576f2d88a40d0e0be6000548484846040518085815260200180602001848152602001836001600160a01b03166001600160a01b03168152602001828103825285818151815260200191508051906020019080838360005b8381101561067d578181015183820152602001610665565b50505050905090810190601f1680156106aa5780820380516001836020036101000a031916815260200191505b509550505050505060405180910390a1505050565b60015481565b6003602090815260009182526040918290208054600180830180548651600293821615610100026000190190911692909204601f8101869004860283018601909652858252919492939092908301828280156107625780601f1061073757610100808354040283529160200191610762565b820191906000526020600020905b81548152906001019060200180831161074557829003601f168201915b5050505060028301546003909301549192916001600160a01b0316905084565b6004602090815260009182526040918290208054600180830180548651600293821615610100026000190190911692909204601f81018690048602830186019096528582529194929390929083018282801561081f5780601f106107f45761010080835404028352916020019161081f565b820191906000526020600020905b81548152906001019060200180831161080257829003601f168201915b50505060028085018054604080516020601f60001961010060018716150201909416959095049283018590048502810185019091528181529596959450909250908301828280156108b15780601f10610886576101008083540402835291602001916108b1565b820191906000526020600020905b81548152906001019060200180831161089457829003601f168201915b505050506003830154600484015460058501805460408051602060026101006001861615026000190190941693909304601f8101849004840282018401909252818152969794966001600160a01b039094169550908301828280156109575780601f1061092c57610100808354040283529160200191610957565b820191906000526020600020905b81548152906001019060200180831161093a57829003601f168201915b5050505050905086565b60025481565b600280546001908101918290556040805160c08101825283815260208082018a81528284018a9052606083018990526001600160a01b038816608084015260a08301879052600095865260048252929094208151815591518051919492936109d59390850192910190610a4d565b50604082015180516109f1916002840191602090910190610a4d565b506060820151600382015560808201516004820180546001600160a01b0319166001600160a01b0390921691909117905560a08201518051610a3d916005840191602090910190610a4d565b5050505050505050565b60005481565b828054600181600116156101000203166002900490600052602060002090601f016020900481019282601f10610a8e57805160ff1916838001178555610abb565b82800160010185558215610abb579182015b82811115610abb578251825591602001919060010190610aa0565b50610ac7929150610acb565b5090565b610ae591905b80821115610ac75760008155600101610ad1565b9056fea165627a7a7230582045c55f17200d876c6fee1e28784f1fcccb7d054e455b3ec45accf4bd613035850029",
  "source": "pragma solidity >=0.4.21 <0.6.0;\r\n\r\ncontract Patient {\r\n  uint public recordsCount =0;\r\n  uint public reportCount = 0 ;\r\n  uint public problemCount = 0 ;\r\n  struct Record {\r\n    uint id ;\r\n    string name ;\r\n    uint age ;\r\n    address createdBy ;\r\n\r\n  }\r\n\r\n  /* struct Report{\r\n    uint id ;\r\n    string medicine  ;\r\n    uint qty ;\r\n    uint prblemRef ;\r\n    uint userRef ;\r\n    address createdBy ;\r\n  } */\r\n  struct Problem{\r\n    uint id ;\r\n    string content ;\r\n    string suggestion;\r\n    uint userRef ;\r\n    address createdBy ;\r\n    string doctorReport ; \r\n  \r\n  }\r\n  mapping (uint => Record) public records ;\r\n  //mapping (uint => Report) public reports ;\r\n  mapping(uint => Problem) public problem ;\r\n  event RecordCreated(\r\n      uint id ,\r\n      string name ,\r\n      uint age ,\r\n      address  craetedBy  \r\n\r\n    );\r\n    constructor() public{\r\n      createRecords(\"khalid\" , 24  , msg.sender );\r\n    }\r\n    function createRecords(string memory _name , uint _age  ,address _sender  ) public {\r\n      recordsCount ++ ;\r\n      records[recordsCount] = Record(recordsCount , _name , _age  , _sender  );\r\n      emit RecordCreated(recordsCount, _name, _age , _sender  );\r\n    }\r\n    function insertProblem(string memory _problem , string memory _suggestion ,  uint _user  , address _sender , string memory  _doctor) public {\r\n      problemCount ++ ;\r\n      problem[problemCount] = Problem(problemCount , _problem ,_suggestion ,  _user , _sender , _doctor );\r\n    }\r\n\r\n\r\n}\r\n",
  "sourcePath": "E:/project/amit/contracts/Patient.sol",
  "compiler": {
    "name": "solc",
    "version": "0.5.8+commit.23d335f2.Emscripten.clang"
  },
  "schemaVersion": "3.0.15",
  "updatedAt": "2019-12-07T14:37:39.635Z",
  "devdoc": {
    "methods": {}
  },
  "userdoc": {
    "methods": {}
  }
}